{
  "_format": "hh-sol-artifact-1",
  "contractName": "VibeCasterPoints",
  "sourceName": "contracts/VibeCasterPoints.sol",
  "abi": [
    {
      "inputs": [
        {
          "internalType": "address",
          "name": "admin",
          "type": "address"
        }
      ],
      "stateMutability": "nonpayable",
      "type": "constructor"
    },
    {
      "inputs": [
        {
          "internalType": "address",
          "name": "owner",
          "type": "address"
        }
      ],
      "name": "OwnableInvalidOwner",
      "type": "error"
    },
    {
      "inputs": [
        {
          "internalType": "address",
          "name": "account",
          "type": "address"
        }
      ],
      "name": "OwnableUnauthorizedAccount",
      "type": "error"
    },
    {
      "anonymous": false,
      "inputs": [
        {
          "indexed": true,
          "internalType": "address",
          "name": "user",
          "type": "address"
        },
        {
          "indexed": false,
          "internalType": "uint256",
          "name": "streak",
          "type": "uint256"
        },
        {
          "indexed": false,
          "internalType": "uint256",
          "name": "bonusPoints",
          "type": "uint256"
        }
      ],
      "name": "ActivityStreak",
      "type": "event"
    },
    {
      "anonymous": false,
      "inputs": [
        {
          "indexed": true,
          "internalType": "address",
          "name": "contractAddress",
          "type": "address"
        }
      ],
      "name": "ContractAuthorized",
      "type": "event"
    },
    {
      "anonymous": false,
      "inputs": [
        {
          "indexed": true,
          "internalType": "address",
          "name": "contractAddress",
          "type": "address"
        }
      ],
      "name": "ContractDeauthorized",
      "type": "event"
    },
    {
      "anonymous": false,
      "inputs": [
        {
          "indexed": true,
          "internalType": "address",
          "name": "user",
          "type": "address"
        },
        {
          "indexed": false,
          "internalType": "uint256",
          "name": "points",
          "type": "uint256"
        },
        {
          "indexed": false,
          "internalType": "uint256",
          "name": "streak",
          "type": "uint256"
        }
      ],
      "name": "DailyLogin",
      "type": "event"
    },
    {
      "anonymous": false,
      "inputs": [
        {
          "indexed": false,
          "internalType": "uint256",
          "name": "levelId",
          "type": "uint256"
        },
        {
          "indexed": false,
          "internalType": "string",
          "name": "name",
          "type": "string"
        },
        {
          "indexed": false,
          "internalType": "uint256",
          "name": "minPoints",
          "type": "uint256"
        }
      ],
      "name": "LevelAdded",
      "type": "event"
    },
    {
      "anonymous": false,
      "inputs": [
        {
          "indexed": false,
          "internalType": "uint256",
          "name": "levelId",
          "type": "uint256"
        }
      ],
      "name": "LevelRemoved",
      "type": "event"
    },
    {
      "anonymous": false,
      "inputs": [
        {
          "indexed": false,
          "internalType": "uint256",
          "name": "levelId",
          "type": "uint256"
        },
        {
          "indexed": false,
          "internalType": "string",
          "name": "name",
          "type": "string"
        },
        {
          "indexed": false,
          "internalType": "uint256",
          "name": "minPoints",
          "type": "uint256"
        }
      ],
      "name": "LevelUpdated",
      "type": "event"
    },
    {
      "anonymous": false,
      "inputs": [
        {
          "indexed": true,
          "internalType": "address",
          "name": "previousOwner",
          "type": "address"
        },
        {
          "indexed": true,
          "internalType": "address",
          "name": "newOwner",
          "type": "address"
        }
      ],
      "name": "OwnershipTransferred",
      "type": "event"
    },
    {
      "anonymous": false,
      "inputs": [
        {
          "indexed": true,
          "internalType": "address",
          "name": "user",
          "type": "address"
        },
        {
          "indexed": false,
          "internalType": "uint256",
          "name": "amount",
          "type": "uint256"
        },
        {
          "indexed": false,
          "internalType": "string",
          "name": "reason",
          "type": "string"
        }
      ],
      "name": "PointsAwarded",
      "type": "event"
    },
    {
      "anonymous": false,
      "inputs": [
        {
          "indexed": true,
          "internalType": "address",
          "name": "user",
          "type": "address"
        },
        {
          "indexed": false,
          "internalType": "uint256",
          "name": "amount",
          "type": "uint256"
        },
        {
          "indexed": false,
          "internalType": "string",
          "name": "reason",
          "type": "string"
        }
      ],
      "name": "PointsDeducted",
      "type": "event"
    },
    {
      "inputs": [
        {
          "internalType": "address",
          "name": "",
          "type": "address"
        }
      ],
      "name": "activityStreak",
      "outputs": [
        {
          "internalType": "uint256",
          "name": "",
          "type": "uint256"
        }
      ],
      "stateMutability": "view",
      "type": "function"
    },
    {
      "inputs": [],
      "name": "activityStreakBonus",
      "outputs": [
        {
          "internalType": "uint256",
          "name": "",
          "type": "uint256"
        }
      ],
      "stateMutability": "view",
      "type": "function"
    },
    {
      "inputs": [
        {
          "internalType": "string",
          "name": "name",
          "type": "string"
        },
        {
          "internalType": "uint256",
          "name": "minPoints",
          "type": "uint256"
        }
      ],
      "name": "addLevel",
      "outputs": [],
      "stateMutability": "nonpayable",
      "type": "function"
    },
    {
      "inputs": [
        {
          "internalType": "address",
          "name": "contractAddress",
          "type": "address"
        }
      ],
      "name": "authorizeContract",
      "outputs": [],
      "stateMutability": "nonpayable",
      "type": "function"
    },
    {
      "inputs": [
        {
          "internalType": "address",
          "name": "",
          "type": "address"
        }
      ],
      "name": "authorizedContracts",
      "outputs": [
        {
          "internalType": "bool",
          "name": "",
          "type": "bool"
        }
      ],
      "stateMutability": "view",
      "type": "function"
    },
    {
      "inputs": [],
      "name": "dailyLogin",
      "outputs": [],
      "stateMutability": "nonpayable",
      "type": "function"
    },
    {
      "inputs": [],
      "name": "dailyLoginPoints",
      "outputs": [
        {
          "internalType": "uint256",
          "name": "",
          "type": "uint256"
        }
      ],
      "stateMutability": "view",
      "type": "function"
    },
    {
      "inputs": [
        {
          "internalType": "address",
          "name": "contractAddress",
          "type": "address"
        }
      ],
      "name": "deauthorizeContract",
      "outputs": [],
      "stateMutability": "nonpayable",
      "type": "function"
    },
    {
      "inputs": [
        {
          "internalType": "address",
          "name": "user",
          "type": "address"
        },
        {
          "internalType": "uint256",
          "name": "amount",
          "type": "uint256"
        },
        {
          "internalType": "string",
          "name": "reason",
          "type": "string"
        }
      ],
      "name": "deductPoints",
      "outputs": [],
      "stateMutability": "nonpayable",
      "type": "function"
    },
    {
      "inputs": [
        {
          "internalType": "address",
          "name": "user",
          "type": "address"
        },
        {
          "internalType": "uint256",
          "name": "amount",
          "type": "uint256"
        },
        {
          "internalType": "string",
          "name": "reason",
          "type": "string"
        }
      ],
      "name": "earnPoints",
      "outputs": [],
      "stateMutability": "nonpayable",
      "type": "function"
    },
    {
      "inputs": [
        {
          "internalType": "address",
          "name": "user",
          "type": "address"
        }
      ],
      "name": "getActivityStreak",
      "outputs": [
        {
          "internalType": "uint256",
          "name": "",
          "type": "uint256"
        }
      ],
      "stateMutability": "view",
      "type": "function"
    },
    {
      "inputs": [
        {
          "internalType": "address",
          "name": "user",
          "type": "address"
        }
      ],
      "name": "getLastActivity",
      "outputs": [
        {
          "internalType": "uint256",
          "name": "",
          "type": "uint256"
        }
      ],
      "stateMutability": "view",
      "type": "function"
    },
    {
      "inputs": [
        {
          "internalType": "address",
          "name": "user",
          "type": "address"
        }
      ],
      "name": "getLastLogin",
      "outputs": [
        {
          "internalType": "uint256",
          "name": "",
          "type": "uint256"
        }
      ],
      "stateMutability": "view",
      "type": "function"
    },
    {
      "inputs": [
        {
          "internalType": "uint256",
          "name": "startIndex",
          "type": "uint256"
        },
        {
          "internalType": "uint256",
          "name": "endIndex",
          "type": "uint256"
        }
      ],
      "name": "getLeaderboard",
      "outputs": [
        {
          "internalType": "address[]",
          "name": "",
          "type": "address[]"
        },
        {
          "internalType": "uint256[]",
          "name": "",
          "type": "uint256[]"
        }
      ],
      "stateMutability": "view",
      "type": "function"
    },
    {
      "inputs": [
        {
          "internalType": "uint256",
          "name": "levelId",
          "type": "uint256"
        }
      ],
      "name": "getLevel",
      "outputs": [
        {
          "internalType": "string",
          "name": "name",
          "type": "string"
        },
        {
          "internalType": "uint256",
          "name": "minPoints",
          "type": "uint256"
        },
        {
          "internalType": "bool",
          "name": "exists",
          "type": "bool"
        }
      ],
      "stateMutability": "view",
      "type": "function"
    },
    {
      "inputs": [],
      "name": "getLevels",
      "outputs": [
        {
          "internalType": "string[]",
          "name": "names",
          "type": "string[]"
        },
        {
          "internalType": "uint256[]",
          "name": "minPoints",
          "type": "uint256[]"
        }
      ],
      "stateMutability": "view",
      "type": "function"
    },
    {
      "inputs": [
        {
          "internalType": "address",
          "name": "user",
          "type": "address"
        }
      ],
      "name": "getLoginStreak",
      "outputs": [
        {
          "internalType": "uint256",
          "name": "",
          "type": "uint256"
        }
      ],
      "stateMutability": "view",
      "type": "function"
    },
    {
      "inputs": [
        {
          "internalType": "address",
          "name": "user",
          "type": "address"
        }
      ],
      "name": "getPoints",
      "outputs": [
        {
          "internalType": "uint256",
          "name": "",
          "type": "uint256"
        }
      ],
      "stateMutability": "view",
      "type": "function"
    },
    {
      "inputs": [
        {
          "internalType": "address",
          "name": "user",
          "type": "address"
        }
      ],
      "name": "getUserLevel",
      "outputs": [
        {
          "internalType": "string",
          "name": "levelName",
          "type": "string"
        },
        {
          "internalType": "uint256",
          "name": "levelId",
          "type": "uint256"
        }
      ],
      "stateMutability": "view",
      "type": "function"
    },
    {
      "inputs": [
        {
          "internalType": "address",
          "name": "contractAddress",
          "type": "address"
        }
      ],
      "name": "isAuthorized",
      "outputs": [
        {
          "internalType": "bool",
          "name": "",
          "type": "bool"
        }
      ],
      "stateMutability": "view",
      "type": "function"
    },
    {
      "inputs": [
        {
          "internalType": "address",
          "name": "",
          "type": "address"
        }
      ],
      "name": "lastActivityTimestamp",
      "outputs": [
        {
          "internalType": "uint256",
          "name": "",
          "type": "uint256"
        }
      ],
      "stateMutability": "view",
      "type": "function"
    },
    {
      "inputs": [
        {
          "internalType": "address",
          "name": "",
          "type": "address"
        }
      ],
      "name": "lastLoginTimestamp",
      "outputs": [
        {
          "internalType": "uint256",
          "name": "",
          "type": "uint256"
        }
      ],
      "stateMutability": "view",
      "type": "function"
    },
    {
      "inputs": [
        {
          "internalType": "uint256",
          "name": "",
          "type": "uint256"
        }
      ],
      "name": "levels",
      "outputs": [
        {
          "internalType": "string",
          "name": "name",
          "type": "string"
        },
        {
          "internalType": "uint256",
          "name": "minPoints",
          "type": "uint256"
        },
        {
          "internalType": "bool",
          "name": "exists",
          "type": "bool"
        }
      ],
      "stateMutability": "view",
      "type": "function"
    },
    {
      "inputs": [
        {
          "internalType": "address",
          "name": "",
          "type": "address"
        }
      ],
      "name": "loginStreak",
      "outputs": [
        {
          "internalType": "uint256",
          "name": "",
          "type": "uint256"
        }
      ],
      "stateMutability": "view",
      "type": "function"
    },
    {
      "inputs": [],
      "name": "owner",
      "outputs": [
        {
          "internalType": "address",
          "name": "",
          "type": "address"
        }
      ],
      "stateMutability": "view",
      "type": "function"
    },
    {
      "inputs": [],
      "name": "recordActivity",
      "outputs": [],
      "stateMutability": "nonpayable",
      "type": "function"
    },
    {
      "inputs": [
        {
          "internalType": "uint256",
          "name": "levelId",
          "type": "uint256"
        }
      ],
      "name": "removeLevel",
      "outputs": [],
      "stateMutability": "nonpayable",
      "type": "function"
    },
    {
      "inputs": [],
      "name": "renounceOwnership",
      "outputs": [],
      "stateMutability": "nonpayable",
      "type": "function"
    },
    {
      "inputs": [],
      "name": "streakBonusPoints",
      "outputs": [
        {
          "internalType": "uint256",
          "name": "",
          "type": "uint256"
        }
      ],
      "stateMutability": "view",
      "type": "function"
    },
    {
      "inputs": [],
      "name": "totalLevels",
      "outputs": [
        {
          "internalType": "uint256",
          "name": "",
          "type": "uint256"
        }
      ],
      "stateMutability": "view",
      "type": "function"
    },
    {
      "inputs": [
        {
          "internalType": "address",
          "name": "newOwner",
          "type": "address"
        }
      ],
      "name": "transferOwnership",
      "outputs": [],
      "stateMutability": "nonpayable",
      "type": "function"
    },
    {
      "inputs": [
        {
          "internalType": "uint256",
          "name": "levelId",
          "type": "uint256"
        },
        {
          "internalType": "string",
          "name": "name",
          "type": "string"
        },
        {
          "internalType": "uint256",
          "name": "minPoints",
          "type": "uint256"
        }
      ],
      "name": "updateLevel",
      "outputs": [],
      "stateMutability": "nonpayable",
      "type": "function"
    },
    {
      "inputs": [
        {
          "internalType": "uint256",
          "name": "newDailyLoginPoints",
          "type": "uint256"
        },
        {
          "internalType": "uint256",
          "name": "newStreakBonusPoints",
          "type": "uint256"
        },
        {
          "internalType": "uint256",
          "name": "newActivityStreakBonus",
          "type": "uint256"
        }
      ],
      "name": "updatePointValues",
      "outputs": [],
      "stateMutability": "nonpayable",
      "type": "function"
    },
    {
      "inputs": [
        {
          "internalType": "address",
          "name": "",
          "type": "address"
        }
      ],
      "name": "userPoints",
      "outputs": [
        {
          "internalType": "uint256",
          "name": "",
          "type": "uint256"
        }
      ],
      "stateMutability": "view",
      "type": "function"
    }
  ],
  "bytecode": "0x608060405260056009556002600a556003600b5534801561001f57600080fd5b50604051613f36380380613f36833981810160405281019061004191906103e3565b80600073ffffffffffffffffffffffffffffffffffffffff168173ffffffffffffffffffffffffffffffffffffffff16036100b45760006040517f1e4fbdf70000000000000000000000000000000000000000000000000000000081526004016100ab919061041f565b60405180910390fd5b6100c38161022a60201b60201c565b5061010a6040518060400160405280600b81526020017f56696265204e657762696500000000000000000000000000000000000000000081525060006102ee60201b60201c565b6101506040518060400160405280600f81526020017f5669626520456e7468757369617374000000000000000000000000000000000081525060326102ee60201b60201c565b6101966040518060400160405280600881526020017f566962652050726f00000000000000000000000000000000000000000000000081525060c86102ee60201b60201c565b6101dd6040518060400160405280600b81526020017f56696265204c6567656e640000000000000000000000000000000000000000008152506101f46102ee60201b60201c565b6102246040518060400160405280600b81526020017f56696265204d61737465720000000000000000000000000000000000000000008152506103e86102ee60201b60201c565b506107d3565b60008060009054906101000a900473ffffffffffffffffffffffffffffffffffffffff169050816000806101000a81548173ffffffffffffffffffffffffffffffffffffffff021916908373ffffffffffffffffffffffffffffffffffffffff1602179055508173ffffffffffffffffffffffffffffffffffffffff168173ffffffffffffffffffffffffffffffffffffffff167f8be0079c531659141344cd1fd0a4f28419497f9722a3daafe3b4186f6b6457e060405160405180910390a35050565b6040518060600160405280838152602001828152602001600115158152506007600060085481526020019081526020016000206000820151816000019081610336919061068a565b506020820151816001015560408201518160020160006101000a81548160ff021916908315150217905550905050600860008154809291906103779061078b565b91905055505050565b600080fd5b600073ffffffffffffffffffffffffffffffffffffffff82169050919050565b60006103b082610385565b9050919050565b6103c0816103a5565b81146103cb57600080fd5b50565b6000815190506103dd816103b7565b92915050565b6000602082840312156103f9576103f8610380565b5b6000610407848285016103ce565b91505092915050565b610419816103a5565b82525050565b60006020820190506104346000830184610410565b92915050565b600081519050919050565b7f4e487b7100000000000000000000000000000000000000000000000000000000600052604160045260246000fd5b7f4e487b7100000000000000000000000000000000000000000000000000000000600052602260045260246000fd5b600060028204905060018216806104bb57607f821691505b6020821081036104ce576104cd610474565b5b50919050565b60008190508160005260206000209050919050565b60006020601f8301049050919050565b600082821b905092915050565b6000600883026105367fffffffffffffffffffffffffffffffffffffffffffffffffffffffffffffffff826104f9565b61054086836104f9565b95508019841693508086168417925050509392505050565b6000819050919050565b6000819050919050565b600061058761058261057d84610558565b610562565b610558565b9050919050565b6000819050919050565b6105a18361056c565b6105b56105ad8261058e565b848454610506565b825550505050565b600090565b6105ca6105bd565b6105d5818484610598565b505050565b5b818110156105f9576105ee6000826105c2565b6001810190506105db565b5050565b601f82111561063e5761060f816104d4565b610618846104e9565b81016020851015610627578190505b61063b610633856104e9565b8301826105da565b50505b505050565b600082821c905092915050565b600061066160001984600802610643565b1980831691505092915050565b600061067a8383610650565b9150826002028217905092915050565b6106938261043a565b67ffffffffffffffff8111156106ac576106ab610445565b5b6106b682546104a3565b6106c18282856105fd565b600060209050601f8311600181146106f457600084156106e2578287015190505b6106ec858261066e565b865550610754565b601f198416610702866104d4565b60005b8281101561072a57848901518255600182019150602085019450602081019050610705565b868310156107475784890151610743601f891682610650565b8355505b6001600288020188555050505b505050505050565b7f4e487b7100000000000000000000000000000000000000000000000000000000600052601160045260246000fd5b600061079682610558565b91507fffffffffffffffffffffffffffffffffffffffffffffffffffffffffffffffff82036107c8576107c761075c565b5b600182019050919050565b613754806107e26000396000f3fe608060405234801561001057600080fd5b50600436106102065760003560e01c80638da5cb5b1161011a578063da65b540116100ad578063f2fde38b1161007c578063f2fde38b14610618578063f50ddbc714610634578063f632e72214610664578063f69a30b914610680578063fe9fbb80146106b057610206565b8063da65b54014610580578063edbe9218146105b0578063ee204abb146105cc578063f0c47cab146105fc57610206565b8063ba022ef6116100e9578063ba022ef6146104d2578063bac1d90114610502578063cdd9725714610532578063d5b9221b1461055057610206565b80638da5cb5b146104365780639b465f6f14610454578063b2596a6714610470578063b650fed3146104a257610206565b806367561d931161019d5780637c23d1cb1161016c5780637c23d1cb1461039257806386481d40146103ae5780638a09287f146103e05780638c8f8a00146103fc5780638cbe619c1461040657610206565b806367561d931461031f5780636e861c0e1461033b578063715018a61461035757806373af16fc1461036157610206565b806336f71682116101d957806336f71682146102a95780634756f60c146102c75780634f1daf30146102d157806360bc151b1461030157610206565b80630c394a601461020b57806311ae35231461022a5780631f5780311461025a57806321923bde14610278575b600080fd5b6102136106e0565b6040516102219291906126b8565b60405180910390f35b610244600480360381019061023f9190612761565b6108ca565b604051610251919061279d565b60405180910390f35b610262610913565b60405161026f919061279d565b60405180910390f35b610292600480360381019061028d9190612761565b610919565b6040516102a0929190612802565b60405180910390f35b6102b1610b3f565b6040516102be919061279d565b60405180910390f35b6102cf610b45565b005b6102eb60048036038101906102e69190612761565b610f36565b6040516102f8919061279d565b60405180910390f35b610309610f7f565b604051610316919061279d565b60405180910390f35b61033960048036038101906103349190612761565b610f85565b005b61035560048036038101906103509190612761565b61109a565b005b61035f6111af565b005b61037b6004803603810190610376919061285e565b6111c3565b60405161038992919061295c565b60405180910390f35b6103ac60048036038101906103a79190612993565b611300565b005b6103c860048036038101906103c39190612993565b6113f8565b6040516103d7939291906129db565b60405180910390f35b6103fa60048036038101906103f59190612b4e565b611537565b005b6104046116bf565b005b610420600480360381019061041b9190612761565b6119a5565b60405161042d919061279d565b60405180910390f35b61043e6119ee565b60405161044b9190612bcc565b60405180910390f35b61046e60048036038101906104699190612be7565b611a17565b005b61048a60048036038101906104859190612993565b611cbf565b604051610499939291906129db565b60405180910390f35b6104bc60048036038101906104b79190612761565b611d7e565b6040516104c9919061279d565b60405180910390f35b6104ec60048036038101906104e79190612761565b611d96565b6040516104f9919061279d565b60405180910390f35b61051c60048036038101906105179190612761565b611dae565b604051610529919061279d565b60405180910390f35b61053a611df7565b604051610547919061279d565b60405180910390f35b61056a60048036038101906105659190612761565b611dfd565b6040516105779190612c56565b60405180910390f35b61059a60048036038101906105959190612761565b611e1d565b6040516105a7919061279d565b60405180910390f35b6105ca60048036038101906105c59190612c71565b611e35565b005b6105e660048036038101906105e19190612761565b611e57565b6040516105f3919061279d565b60405180910390f35b61061660048036038101906106119190612be7565b611ea0565b005b610632600480360381019061062d9190612761565b6120c6565b005b61064e60048036038101906106499190612761565b61214c565b60405161065b919061279d565b60405180910390f35b61067e60048036038101906106799190612cc4565b612164565b005b61069a60048036038101906106959190612761565b61224b565b6040516106a7919061279d565b60405180910390f35b6106ca60048036038101906106c59190612761565b612263565b6040516106d79190612c56565b60405180910390f35b606080600060085467ffffffffffffffff81111561070157610700612a23565b5b60405190808252806020026020018201604052801561073457816020015b606081526020019060019003908161071f5790505b509050600060085467ffffffffffffffff81111561075557610754612a23565b5b6040519080825280602002602001820160405280156107835781602001602082028036833780820191505090505b50905060005b6008548110156108bd576007600082815260200190815260200160002060020160009054906101000a900460ff16156108b0576007600082815260200190815260200160002060000180546107dd90612d4f565b80601f016020809104026020016040519081016040528092919081815260200182805461080990612d4f565b80156108565780601f1061082b57610100808354040283529160200191610856565b820191906000526020600020905b81548152906001019060200180831161083957829003601f168201915b505050505083828151811061086e5761086d612d80565b5b602002602001018190525060076000828152602001908152602001600020600101548282815181106108a3576108a2612d80565b5b6020026020010181815250505b8080600101915050610789565b5081819350935050509091565b6000600660008373ffffffffffffffffffffffffffffffffffffffff1673ffffffffffffffffffffffffffffffffffffffff168152602001908152602001600020549050919050565b60085481565b6060600080600160008573ffffffffffffffffffffffffffffffffffffffff1673ffffffffffffffffffffffffffffffffffffffff168152602001908152602001600020549050600060016008546109719190612de8565b90505b60008112610a8f5760008190506007600082815260200190815260200160002060020160009054906101000a900460ff1680156109c7575060076000828152602001908152602001600020600101548310155b15610a7b5760076000828152602001908152602001600020600001818180546109ef90612d4f565b80601f0160208091040260200160405190810160405280929190818152602001828054610a1b90612d4f565b8015610a685780601f10610a3d57610100808354040283529160200191610a68565b820191906000526020600020905b815481529060010190602001808311610a4b57829003601f168201915b5050505050915094509450505050610b3a565b508080610a8790612e2b565b915050610974565b50600760008081526020019081526020016000206000016000818054610ab490612d4f565b80601f0160208091040260200160405190810160405280929190818152602001828054610ae090612d4f565b8015610b2d5780601f10610b0257610100808354040283529160200191610b2d565b820191906000526020600020905b815481529060010190602001808311610b1057829003601f168201915b5050505050915092509250505b915091565b600a5481565b600260003373ffffffffffffffffffffffffffffffffffffffff1673ffffffffffffffffffffffffffffffffffffffff16815260200190815260200160002060009054906101000a900460ff1680610bcf5750610ba06119ee565b73ffffffffffffffffffffffffffffffffffffffff163373ffffffffffffffffffffffffffffffffffffffff16145b610c0e576040517f08c379a0000000000000000000000000000000000000000000000000000000008152600401610c0590612ebf565b60405180910390fd5b6000429050600032905062015180600660008373ffffffffffffffffffffffffffffffffffffffff1673ffffffffffffffffffffffffffffffffffffffff16815260200190815260200160002054610c669190612edf565b8210610f3257620151806002610c7c9190612f13565b600660008373ffffffffffffffffffffffffffffffffffffffff1673ffffffffffffffffffffffffffffffffffffffff16815260200190815260200160002054610cc69190612edf565b821015610d2757600560008273ffffffffffffffffffffffffffffffffffffffff1673ffffffffffffffffffffffffffffffffffffffff1681526020019081526020016000206000815480929190610d1d90612f55565b9190505550610d6d565b6001600560008373ffffffffffffffffffffffffffffffffffffffff1673ffffffffffffffffffffffffffffffffffffffff168152602001908152602001600020819055505b81600660008373ffffffffffffffffffffffffffffffffffffffff1673ffffffffffffffffffffffffffffffffffffffff168152602001908152602001600020819055506001600560008373ffffffffffffffffffffffffffffffffffffffff1673ffffffffffffffffffffffffffffffffffffffff168152602001908152602001600020541115610f31576000600b54600560008473ffffffffffffffffffffffffffffffffffffffff1673ffffffffffffffffffffffffffffffffffffffff16815260200190815260200160002054610e489190612f13565b905080600160008473ffffffffffffffffffffffffffffffffffffffff1673ffffffffffffffffffffffffffffffffffffffff1681526020019081526020016000206000828254610e999190612edf565b925050819055508173ffffffffffffffffffffffffffffffffffffffff167fd011b8476298d7da5e9674aec05ec4fb83a71dc507f900566ea8f23b3cdeda97600560008573ffffffffffffffffffffffffffffffffffffffff1673ffffffffffffffffffffffffffffffffffffffff1681526020019081526020016000205483604051610f27929190612f9d565b60405180910390a2505b5b5050565b6000600460008373ffffffffffffffffffffffffffffffffffffffff1673ffffffffffffffffffffffffffffffffffffffff168152602001908152602001600020549050919050565b600b5481565b610f8d6122b9565b600073ffffffffffffffffffffffffffffffffffffffff168173ffffffffffffffffffffffffffffffffffffffff1603610ffc576040517f08c379a0000000000000000000000000000000000000000000000000000000008152600401610ff390613012565b60405180910390fd5b6001600260008373ffffffffffffffffffffffffffffffffffffffff1673ffffffffffffffffffffffffffffffffffffffff16815260200190815260200160002060006101000a81548160ff0219169083151502179055508073ffffffffffffffffffffffffffffffffffffffff167f8983a1f3c3cb45c24c8226b5b805e3b6eb49686530b808534b2a920129eff65160405160405180910390a250565b6110a26122b9565b600073ffffffffffffffffffffffffffffffffffffffff168173ffffffffffffffffffffffffffffffffffffffff1603611111576040517f08c379a000000000000000000000000000000000000000000000000000000000815260040161110890613012565b60405180910390fd5b6000600260008373ffffffffffffffffffffffffffffffffffffffff1673ffffffffffffffffffffffffffffffffffffffff16815260200190815260200160002060006101000a81548160ff0219169083151502179055508073ffffffffffffffffffffffffffffffffffffffff167f54142b7cb3ceaa9e564243ce4cc2303723c842a1144192de6b3c594f68b16a9a60405160405180910390a250565b6111b76122b9565b6111c16000612340565b565b606080828410611208576040517f08c379a00000000000000000000000000000000000000000000000000000000081526004016111ff9061307e565b60405180910390fd5b60648484611216919061309e565b1115611257576040517f08c379a000000000000000000000000000000000000000000000000000000000815260040161124e9061311e565b60405180910390fd5b60008067ffffffffffffffff81111561127357611272612a23565b5b6040519080825280602002602001820160405280156112a15781602001602082028036833780820191505090505b50905060008067ffffffffffffffff8111156112c0576112bf612a23565b5b6040519080825280602002602001820160405280156112ee5781602001602082028036833780820191505090505b50905081819350935050509250929050565b6113086122b9565b600854811061134c576040517f08c379a00000000000000000000000000000000000000000000000000000000081526004016113439061318a565b60405180910390fd5b6000811161138f576040517f08c379a0000000000000000000000000000000000000000000000000000000008152600401611386906131f6565b60405180910390fd5b60006007600083815260200190815260200160002060020160006101000a81548160ff0219169083151502179055507fa624825e90bdd87d7ff5b1d3a2d7948d5593ca0bb25eb22ef733a75a63788911816040516113ed919061279d565b60405180910390a150565b60606000806008548410611441576040517f08c379a00000000000000000000000000000000000000000000000000000000081526004016114389061318a565b60405180910390fd5b60006007600086815260200190815260200160002060405180606001604052908160008201805461147190612d4f565b80601f016020809104026020016040519081016040528092919081815260200182805461149d90612d4f565b80156114ea5780601f106114bf576101008083540402835291602001916114ea565b820191906000526020600020905b8154815290600101906020018083116114cd57829003601f168201915b50505050508152602001600182015481526020016002820160009054906101000a900460ff1615151515815250509050806000015181602001518260400151935093509350509193909250565b61153f6122b9565b6008548310611583576040517f08c379a000000000000000000000000000000000000000000000000000000000815260040161157a9061318a565b60405180910390fd5b60008251116115c7576040517f08c379a00000000000000000000000000000000000000000000000000000000081526004016115be90613262565b60405180910390fd5b600081101561160b576040517f08c379a0000000000000000000000000000000000000000000000000000000008152600401611602906132ce565b60405180910390fd5b604051806060016040528083815260200182815260200160011515815250600760008581526020019081526020016000206000820151816000019081611651919061349a565b506020820151816001015560408201518160020160006101000a81548160ff0219169083151502179055509050507fe0b8ede4e1a6a80dd338f92cdd3860428c883f07da3ae212710cbc8f39df62228383836040516116b29392919061356c565b60405180910390a1505050565b600042905062015180600360003373ffffffffffffffffffffffffffffffffffffffff1673ffffffffffffffffffffffffffffffffffffffff168152602001908152602001600020546117129190612edf565b81106119a2576201518060026117289190612f13565b600360003373ffffffffffffffffffffffffffffffffffffffff1673ffffffffffffffffffffffffffffffffffffffff168152602001908152602001600020546117729190612edf565b8110156117d357600460003373ffffffffffffffffffffffffffffffffffffffff1673ffffffffffffffffffffffffffffffffffffffff16815260200190815260200160002060008154809291906117c990612f55565b9190505550611819565b6001600460003373ffffffffffffffffffffffffffffffffffffffff1673ffffffffffffffffffffffffffffffffffffffff168152602001908152602001600020819055505b80600360003373ffffffffffffffffffffffffffffffffffffffff1673ffffffffffffffffffffffffffffffffffffffff168152602001908152602001600020819055506000600a54600460003373ffffffffffffffffffffffffffffffffffffffff1673ffffffffffffffffffffffffffffffffffffffff168152602001908152602001600020546118ac9190612f13565b6009546118b99190612edf565b905080600160003373ffffffffffffffffffffffffffffffffffffffff1673ffffffffffffffffffffffffffffffffffffffff168152602001908152602001600020600082825461190a9190612edf565b925050819055503373ffffffffffffffffffffffffffffffffffffffff167f6bbd45b0fe350556e768ac731436df4b1387dd52325e50996e37c6b84de3537f82600460003373ffffffffffffffffffffffffffffffffffffffff1673ffffffffffffffffffffffffffffffffffffffff16815260200190815260200160002054604051611998929190612f9d565b60405180910390a2505b50565b6000600360008373ffffffffffffffffffffffffffffffffffffffff1673ffffffffffffffffffffffffffffffffffffffff168152602001908152602001600020549050919050565b60008060009054906101000a900473ffffffffffffffffffffffffffffffffffffffff16905090565b600260003373ffffffffffffffffffffffffffffffffffffffff1673ffffffffffffffffffffffffffffffffffffffff16815260200190815260200160002060009054906101000a900460ff1680611aa15750611a726119ee565b73ffffffffffffffffffffffffffffffffffffffff163373ffffffffffffffffffffffffffffffffffffffff16145b611ae0576040517f08c379a0000000000000000000000000000000000000000000000000000000008152600401611ad790612ebf565b60405180910390fd5b600073ffffffffffffffffffffffffffffffffffffffff168373ffffffffffffffffffffffffffffffffffffffff1603611b4f576040517f08c379a0000000000000000000000000000000000000000000000000000000008152600401611b46906135f6565b60405180910390fd5b60008211611b92576040517f08c379a0000000000000000000000000000000000000000000000000000000008152600401611b8990613662565b60405180910390fd5b81600160008573ffffffffffffffffffffffffffffffffffffffff1673ffffffffffffffffffffffffffffffffffffffff168152602001908152602001600020541015611c14576040517f08c379a0000000000000000000000000000000000000000000000000000000008152600401611c0b906136ce565b60405180910390fd5b81600160008573ffffffffffffffffffffffffffffffffffffffff1673ffffffffffffffffffffffffffffffffffffffff1681526020019081526020016000206000828254611c63919061309e565b925050819055508273ffffffffffffffffffffffffffffffffffffffff167ff9d84dc8dbc1ec63030d63fe51eb9e84f59905783078b2f3d84f3fcee1ae778f8383604051611cb29291906136ee565b60405180910390a2505050565b6007602052806000526040600020600091509050806000018054611ce290612d4f565b80601f0160208091040260200160405190810160405280929190818152602001828054611d0e90612d4f565b8015611d5b5780601f10611d3057610100808354040283529160200191611d5b565b820191906000526020600020905b815481529060010190602001808311611d3e57829003601f168201915b5050505050908060010154908060020160009054906101000a900460ff16905083565b60046020528060005260406000206000915090505481565b60056020528060005260406000206000915090505481565b6000600560008373ffffffffffffffffffffffffffffffffffffffff1673ffffffffffffffffffffffffffffffffffffffff168152602001908152602001600020549050919050565b60095481565b60026020528060005260406000206000915054906101000a900460ff1681565b60066020528060005260406000206000915090505481565b611e3d6122b9565b8260098190555081600a8190555080600b81905550505050565b6000600160008373ffffffffffffffffffffffffffffffffffffffff1673ffffffffffffffffffffffffffffffffffffffff168152602001908152602001600020549050919050565b600260003373ffffffffffffffffffffffffffffffffffffffff1673ffffffffffffffffffffffffffffffffffffffff16815260200190815260200160002060009054906101000a900460ff1680611f2a5750611efb6119ee565b73ffffffffffffffffffffffffffffffffffffffff163373ffffffffffffffffffffffffffffffffffffffff16145b611f69576040517f08c379a0000000000000000000000000000000000000000000000000000000008152600401611f6090612ebf565b60405180910390fd5b600073ffffffffffffffffffffffffffffffffffffffff168373ffffffffffffffffffffffffffffffffffffffff1603611fd8576040517f08c379a0000000000000000000000000000000000000000000000000000000008152600401611fcf906135f6565b60405180910390fd5b6000821161201b576040517f08c379a000000000000000000000000000000000000000000000000000000000815260040161201290613662565b60405180910390fd5b81600160008573ffffffffffffffffffffffffffffffffffffffff1673ffffffffffffffffffffffffffffffffffffffff168152602001908152602001600020600082825461206a9190612edf565b925050819055508273ffffffffffffffffffffffffffffffffffffffff167f4c3089477cda1ac100291a040b3ac97ff5f55b6d8b2acfb56a59b9419d95ce0483836040516120b99291906136ee565b60405180910390a2505050565b6120ce6122b9565b600073ffffffffffffffffffffffffffffffffffffffff168173ffffffffffffffffffffffffffffffffffffffff16036121405760006040517f1e4fbdf70000000000000000000000000000000000000000000000000000000081526004016121379190612bcc565b60405180910390fd5b61214981612340565b50565b60016020528060005260406000206000915090505481565b61216c6122b9565b60008251116121b0576040517f08c379a00000000000000000000000000000000000000000000000000000000081526004016121a790613262565b60405180910390fd5b60008110156121f4576040517f08c379a00000000000000000000000000000000000000000000000000000000081526004016121eb906132ce565b60405180910390fd5b6121fe8282612404565b7fddf609d9639ed0524cc6a1092bd67ac3bf2cb2daf79342faf5e977c2e183a9c2600160085461222e919061309e565b838360405161223f9392919061356c565b60405180910390a15050565b60036020528060005260406000206000915090505481565b6000600260008373ffffffffffffffffffffffffffffffffffffffff1673ffffffffffffffffffffffffffffffffffffffff16815260200190815260200160002060009054906101000a900460ff169050919050565b6122c1612496565b73ffffffffffffffffffffffffffffffffffffffff166122df6119ee565b73ffffffffffffffffffffffffffffffffffffffff161461233e57612302612496565b6040517f118cdaa70000000000000000000000000000000000000000000000000000000081526004016123359190612bcc565b60405180910390fd5b565b60008060009054906101000a900473ffffffffffffffffffffffffffffffffffffffff169050816000806101000a81548173ffffffffffffffffffffffffffffffffffffffff021916908373ffffffffffffffffffffffffffffffffffffffff1602179055508173ffffffffffffffffffffffffffffffffffffffff168173ffffffffffffffffffffffffffffffffffffffff167f8be0079c531659141344cd1fd0a4f28419497f9722a3daafe3b4186f6b6457e060405160405180910390a35050565b604051806060016040528083815260200182815260200160011515815250600760006008548152602001908152602001600020600082015181600001908161244c919061349a565b506020820151816001015560408201518160020160006101000a81548160ff0219169083151502179055509050506008600081548092919061248d90612f55565b91905055505050565b600033905090565b600081519050919050565b600082825260208201905092915050565b6000819050602082019050919050565b600081519050919050565b600082825260208201905092915050565b60005b838110156125045780820151818401526020810190506124e9565b60008484015250505050565b6000601f19601f8301169050919050565b600061252c826124ca565b61253681856124d5565b93506125468185602086016124e6565b61254f81612510565b840191505092915050565b60006125668383612521565b905092915050565b6000602082019050919050565b60006125868261249e565b61259081856124a9565b9350836020820285016125a2856124ba565b8060005b858110156125de57848403895281516125bf858261255a565b94506125ca8361256e565b925060208a019950506001810190506125a6565b50829750879550505050505092915050565b600081519050919050565b600082825260208201905092915050565b6000819050602082019050919050565b6000819050919050565b61262f8161261c565b82525050565b60006126418383612626565b60208301905092915050565b6000602082019050919050565b6000612665826125f0565b61266f81856125fb565b935061267a8361260c565b8060005b838110156126ab5781516126928882612635565b975061269d8361264d565b92505060018101905061267e565b5085935050505092915050565b600060408201905081810360008301526126d2818561257b565b905081810360208301526126e6818461265a565b90509392505050565b6000604051905090565b600080fd5b600080fd5b600073ffffffffffffffffffffffffffffffffffffffff82169050919050565b600061272e82612703565b9050919050565b61273e81612723565b811461274957600080fd5b50565b60008135905061275b81612735565b92915050565b600060208284031215612777576127766126f9565b5b60006127858482850161274c565b91505092915050565b6127978161261c565b82525050565b60006020820190506127b2600083018461278e565b92915050565b600082825260208201905092915050565b60006127d4826124ca565b6127de81856127b8565b93506127ee8185602086016124e6565b6127f781612510565b840191505092915050565b6000604082019050818103600083015261281c81856127c9565b905061282b602083018461278e565b9392505050565b61283b8161261c565b811461284657600080fd5b50565b60008135905061285881612832565b92915050565b60008060408385031215612875576128746126f9565b5b600061288385828601612849565b925050602061289485828601612849565b9150509250929050565b600081519050919050565b600082825260208201905092915050565b6000819050602082019050919050565b6128d381612723565b82525050565b60006128e583836128ca565b60208301905092915050565b6000602082019050919050565b60006129098261289e565b61291381856128a9565b935061291e836128ba565b8060005b8381101561294f57815161293688826128d9565b9750612941836128f1565b925050600181019050612922565b5085935050505092915050565b6000604082019050818103600083015261297681856128fe565b9050818103602083015261298a818461265a565b90509392505050565b6000602082840312156129a9576129a86126f9565b5b60006129b784828501612849565b91505092915050565b60008115159050919050565b6129d5816129c0565b82525050565b600060608201905081810360008301526129f581866127c9565b9050612a04602083018561278e565b612a1160408301846129cc565b949350505050565b600080fd5b600080fd5b7f4e487b7100000000000000000000000000000000000000000000000000000000600052604160045260246000fd5b612a5b82612510565b810181811067ffffffffffffffff82111715612a7a57612a79612a23565b5b80604052505050565b6000612a8d6126ef565b9050612a998282612a52565b919050565b600067ffffffffffffffff821115612ab957612ab8612a23565b5b612ac282612510565b9050602081019050919050565b82818337600083830152505050565b6000612af1612aec84612a9e565b612a83565b905082815260208101848484011115612b0d57612b0c612a1e565b5b612b18848285612acf565b509392505050565b600082601f830112612b3557612b34612a19565b5b8135612b45848260208601612ade565b91505092915050565b600080600060608486031215612b6757612b666126f9565b5b6000612b7586828701612849565b935050602084013567ffffffffffffffff811115612b9657612b956126fe565b5b612ba286828701612b20565b9250506040612bb386828701612849565b9150509250925092565b612bc681612723565b82525050565b6000602082019050612be16000830184612bbd565b92915050565b600080600060608486031215612c0057612bff6126f9565b5b6000612c0e8682870161274c565b9350506020612c1f86828701612849565b925050604084013567ffffffffffffffff811115612c4057612c3f6126fe565b5b612c4c86828701612b20565b9150509250925092565b6000602082019050612c6b60008301846129cc565b92915050565b600080600060608486031215612c8a57612c896126f9565b5b6000612c9886828701612849565b9350506020612ca986828701612849565b9250506040612cba86828701612849565b9150509250925092565b60008060408385031215612cdb57612cda6126f9565b5b600083013567ffffffffffffffff811115612cf957612cf86126fe565b5b612d0585828601612b20565b9250506020612d1685828601612849565b9150509250929050565b7f4e487b7100000000000000000000000000000000000000000000000000000000600052602260045260246000fd5b60006002820490506001821680612d6757607f821691505b602082108103612d7a57612d79612d20565b5b50919050565b7f4e487b7100000000000000000000000000000000000000000000000000000000600052603260045260246000fd5b6000819050919050565b7f4e487b7100000000000000000000000000000000000000000000000000000000600052601160045260246000fd5b6000612df382612daf565b9150612dfe83612daf565b9250828203905081811260008412168282136000851215161715612e2557612e24612db9565b5b92915050565b6000612e3682612daf565b91507f80000000000000000000000000000000000000000000000000000000000000008203612e6857612e67612db9565b5b600182039050919050565b7f4e6f7420617574686f72697a6564000000000000000000000000000000000000600082015250565b6000612ea9600e836127b8565b9150612eb482612e73565b602082019050919050565b60006020820190508181036000830152612ed881612e9c565b9050919050565b6000612eea8261261c565b9150612ef58361261c565b9250828201905080821115612f0d57612f0c612db9565b5b92915050565b6000612f1e8261261c565b9150612f298361261c565b9250828202612f378161261c565b91508282048414831517612f4e57612f4d612db9565b5b5092915050565b6000612f608261261c565b91507fffffffffffffffffffffffffffffffffffffffffffffffffffffffffffffffff8203612f9257612f91612db9565b5b600182019050919050565b6000604082019050612fb2600083018561278e565b612fbf602083018461278e565b9392505050565b7f496e76616c696420636f6e747261637420616464726573730000000000000000600082015250565b6000612ffc6018836127b8565b915061300782612fc6565b602082019050919050565b6000602082019050818103600083015261302b81612fef565b9050919050565b7f496e76616c69642072616e676500000000000000000000000000000000000000600082015250565b6000613068600d836127b8565b915061307382613032565b602082019050919050565b600060208201905081810360008301526130978161305b565b9050919050565b60006130a98261261c565b91506130b48361261c565b92508282039050818111156130cc576130cb612db9565b5b92915050565b7f52616e676520746f6f206c617267650000000000000000000000000000000000600082015250565b6000613108600f836127b8565b9150613113826130d2565b602082019050919050565b60006020820190508181036000830152613137816130fb565b9050919050565b7f4c6576656c20646f6573206e6f74206578697374000000000000000000000000600082015250565b60006131746014836127b8565b915061317f8261313e565b602082019050919050565b600060208201905081810360008301526131a381613167565b9050919050565b7f43616e6e6f742072656d6f76652062617365206c6576656c0000000000000000600082015250565b60006131e06018836127b8565b91506131eb826131aa565b602082019050919050565b6000602082019050818103600083015261320f816131d3565b9050919050565b7f4c6576656c206e616d652063616e6e6f7420626520656d707479000000000000600082015250565b600061324c601a836127b8565b915061325782613216565b602082019050919050565b6000602082019050818103600083015261327b8161323f565b9050919050565b7f4d696e20706f696e74732063616e6e6f74206265206e65676174697665000000600082015250565b60006132b8601d836127b8565b91506132c382613282565b602082019050919050565b600060208201905081810360008301526132e7816132ab565b9050919050565b60008190508160005260206000209050919050565b60006020601f8301049050919050565b600082821b905092915050565b6000600883026133507fffffffffffffffffffffffffffffffffffffffffffffffffffffffffffffffff82613313565b61335a8683613313565b95508019841693508086168417925050509392505050565b6000819050919050565b600061339761339261338d8461261c565b613372565b61261c565b9050919050565b6000819050919050565b6133b18361337c565b6133c56133bd8261339e565b848454613320565b825550505050565b600090565b6133da6133cd565b6133e58184846133a8565b505050565b5b81811015613409576133fe6000826133d2565b6001810190506133eb565b5050565b601f82111561344e5761341f816132ee565b61342884613303565b81016020851015613437578190505b61344b61344385613303565b8301826133ea565b50505b505050565b600082821c905092915050565b600061347160001984600802613453565b1980831691505092915050565b600061348a8383613460565b9150826002028217905092915050565b6134a3826124ca565b67ffffffffffffffff8111156134bc576134bb612a23565b5b6134c68254612d4f565b6134d182828561340d565b600060209050601f83116001811461350457600084156134f2578287015190505b6134fc858261347e565b865550613564565b601f198416613512866132ee565b60005b8281101561353a57848901518255600182019150602085019450602081019050613515565b868310156135575784890151613553601f891682613460565b8355505b6001600288020188555050505b505050505050565b6000606082019050613581600083018661278e565b818103602083015261359381856127c9565b90506135a2604083018461278e565b949350505050565b7f496e76616c696420757365722061646472657373000000000000000000000000600082015250565b60006135e06014836127b8565b91506135eb826135aa565b602082019050919050565b6000602082019050818103600083015261360f816135d3565b9050919050565b7f416d6f756e74206d7573742062652067726561746572207468616e2030000000600082015250565b600061364c601d836127b8565b915061365782613616565b602082019050919050565b6000602082019050818103600083015261367b8161363f565b9050919050565b7f496e73756666696369656e7420706f696e747300000000000000000000000000600082015250565b60006136b86013836127b8565b91506136c382613682565b602082019050919050565b600060208201905081810360008301526136e7816136ab565b9050919050565b6000604082019050613703600083018561278e565b818103602083015261371581846127c9565b9050939250505056fea2646970667358221220125e47fa71ebd26e4f22e0c41cabcce632fb650ac33a206bbb3a179a9a9423af64736f6c634300081a0033",
  "linkReferences": {},
  "deployedLinkReferences": {}
}